:100000000C948D050C94B5050C94B5050C94B505B0
:100010000C94B5050C94B5050C94B5050C94B50578
:100020000C94B5050C94B5050C94B5050C94B50568
:100030000C94B5050C94B5050C94820E0C94290F04
:100040000C94B5050C94B5050C94B5050C94B50548
:100050000C94B5050C94B5050C94B5050C94B50538
:100060000C94B5050C94B5050C94B5050C94B50528
:100070000C94B5050C94B5050C94B5050C94B50518
:100080000C94B5050C94B5050C94B5050C94B50508
:100090000C94740D0C94B5050C94B5050C94B50531
:1000A0000000000300010200000101040000000044
:1000B0000000000000000000000000000000000040
:1000C0000000000000000000000504000506020416
:1000D0000103000100010200010203040502030301
:1000E00005040605040607030700010202030001D8
:1000F0000706DB40A4A62EAFDA0281DA1281DA020B
:10010000818F2000A1C8D300408DAED580A82010DB
:100110000120400410020801020102040102040847
:1001200010200408082010402010408008800102A0
:1001300004040801028040020200050201050004D7
:10014000010104040403030303030300000200008D
:100150000301010000010202020205050505030575
:10016000000060000000000000000000000000002F
:1001700000E000000000000000000000000000019E
:10018000E00000000000000000000000000001F09E
:100190000000000000000000000000000003F0006C
:1001A00000000000000000000000000007F0000058
:1001B000000000000000000000000007F800000040
:1001C000000000000000000000000FF80000000325
:1001D000C0007E000001E0007F0FF800000003C0B7
:1001E00000FE000001E000FFEFF800000003C00087
:1001F000FE000001E000FFFFF800000003C000F077
:100200000000000F007FFE7FC0000003C000F00070
:1002100000000F003FFE7FF83FF1FBCFFCFEF3BC78
:100220003DEFE01FFE7FFF7FFBFFDFFEFEFFBC3DDB
:10023000EFE01FC6FFFF7FFBFFDFFEFEFFBC3DEFD1
:10024000E00FE3C7FE787BC3DE1EF0FFBC3DEF008E
:1002500007FF87FC787BC3DE1EF0F83C3DEF000112
:10026000FFFFF0007BC3C01EF0F03C3DEF0001F348
:100270007FE03FFBC3CFFEF0F03C3DEF0003E33FE8
:10028000807FFBC3DFFEF0F03C3DEF0007E73C0062
:10029000787BC3DE1EF0F03C3DEF0007FFBE007828
:1002A0007BC3DE1EF0F03C3DEF0007FFFE00787BD5
:1002B000C3DE1EF0F03C3DEF000FFFFE007FFBFFB2
:1002C000DFFEF0F03FFDEFE00FFFFF007FFBFFDF01
:1002D000FEF0F03FFDEFE00FF9FF003E79F9CF9E11
:1002E000F0F01F3DE7E01FF1FF00000000000000FC
:1002F00000000000001F80FF007FFFFFFFFFFFFFE7
:10030000FFFFFFE01C007F007FFFFFFFFEB46D8852
:100310008D18E000001F007FFFFFFFFE95AD7DB54B
:1003200077E000000F007FFFFFFFFEA5AD9D8D1958
:10033000E0000006007FFFFFFFFEB5ADEDB57EE0FB
:10034000000000000001800000000000000000002C
:10035000038000000000000000000007C000000053
:1003600000000000000007C00000000000000000C6
:10037000000FC00000000000000000001FE00000AF
:10038000000000000000001FE0000000000000006E
:1003900000003FE00000000000000000003FF0000F
:1003A00000000000000000007FF0000000000000DE
:1003B000001FF87FF0000000000000003FFE7FF00B
:1003C000000000000000003FFF7FF0000000000080
:1003D00000001FFFFBE0000000000000000FFFF91D
:1003E000FFC00000000000000FFFF9FFF800000050
:1003F00000000007FFF1FFFF00000000000003FC09
:1004000073FFFF80000000000001FE3FFFFF80003F
:100410000000000000FF1E0FFF00000000000000B1
:100420007FFE1FFC000000000000003FFFFFF800FF
:100430000000000000000FDFFFE0000000000000EF
:10044000001F19FFC0000000000000003F3CFF003B
:10045000000000000000007E7CF8000000000000AA
:1004600000007FFE7C0000000000000000FFFFFC99
:100470000000000000000000FFFFFE000000000080
:10048000000000FFFFFE0000000000000001FFEF81
:10049000FE0000000000000001FFCFFE0000000091
:1004A00000000003FF07FE0000000000000003FC46
:1004B00007FE0000000000000003F003FE00000043
:1004C00000000000018000FE0000000000000000AD
:1004D00000007E000000000000000000003E000060
:1004E00000000000000000000C00000000000007F9
:1004F0008000FC000003C0000000078001FC000039
:1005000003C0000000078001FC000003C0000000E1
:10051000078001E00000001E000000078001E000ED
:1005200000001E007FE3F79FF9FDE7787BDFC0FF47
:10053000F7FFBFFDFDFF787BDFC0FFF7FFBFFDFDCD
:10054000FF787BDFC0F0F787BC3DE1FF787BDE0002
:10055000F0F787BC3DE1F0787BDE0000F787803D57
:10056000E1E0787BDE007FF7879FFDE1E0787BDECE
:1005700000FFF787BFFDE1E0787BDE00F0F787BC86
:100580003DE1E0787BDE00F0F787BC3DE1E0787B81
:10059000DE00F0F787BC3DE1E0787BDE00FFF7FF8F
:1005A000BFFDE1E07FFBDFC0FFF7FFBFFDE1E07FC4
:1005B000FBDFC07CF3F39F3DE1E03E7BCFC000005A
:1005C000000000000000000000FFFFFFFFFFFFFF32
:1005D000FFFFFFC0FFFFFFFFFD68DB111A31C0FF07
:1005E000FFFFFFFD2B5AFB6AEFC0FFFFFFFFFD4B34
:1005F0005B3B1A33C0FFFFFFFFFD6B5BDB6AFDC097
:100600002200FF2100000103070F1F3F7F0080C071
:10061000E0F0F8FCFE00000000003E5B4F5B3E3E59
:100620006B4F6B3E1C3E7C3E1C183C7E3C181C579E
:100630007D571C1C5E7F5E1C00183C1800FFE7C342
:10064000E7FF0018241800FFE7DBE7FF30483A0611
:100650000E2629792926407F050507407F05253F7D
:100660005A3CE73C5A7F3E1C1C08081C1C3E7F1469
:10067000227F22145F5F005F5F06097F017F0066B3
:1006800089956A606060606094A2FFA29408047E0D
:10069000040810207E201008082A1C08081C2A08BC
:1006A000081E101010100C1E0C1E0C30383E383076
:1006B000060E3E0E06000000000000005F00000075
:1006C00007000700147F147F14242A7F2A122313A3
:1006D00008646236495620500008070300001C22B7
:1006E00041000041221C002A1C7F1C2A08083E08E9
:1006F00008008070300008080808080000606000EA
:1007000020100804023E5149453E00427F400072DD
:10071000494949462141494D331814127F10274554
:100720004545393C4A494931412111090736494972
:100730004936464949291E00001400000040340093
:100740000000081422411414141414004122140847
:1007500002015909063E415D594E7C1211127C7FFF
:10076000494949363E414141227F4141413E7F490D
:100770004949417F090909013E414151737F0808F8
:10078000087F00417F41002040413F017F08142243
:10079000417F404040407F021C027F7F0408107F61
:1007A0003E4141413E7F090909063E4151215E7F9C
:1007B00009192946264949493203017F01033F406F
:1007C00040403F1F2040201F3F4038403F631408F7
:1007D000146303047804036159494D43007F414188
:1007E000410204081020004141417F04020102043B
:1007F0004040404040000307080020545478407FA8
:10080000284444383844444428384444287F3854E1
:1008100054541800087E090218A4A49C787F080488
:10082000047800447D40002040403D007F10284473
:100830000000417F40007C047804787C0804047840
:100840003844444438FC1824241818242418FC7C08
:1008500008040408485454542404043F44243C40ED
:1008600040207C1C2040201C3C4030403C44281050
:1008700028444C9090907C4464544C440008364189
:100880000000007700000041360800020102040267
:100890003C2623263C1EA1A161123A4040207A3812
:1008A0005454555921555579412254547842215573
:1008B00054784020545579400C1E527212395555C7
:1008C0005559395454545939555454580000457C9D
:1008D000410002457D420001457C407D1211127DA0
:1008E000F0282528F07C545545002054547C547C35
:1008F0000A097F4932494949323A4444443A324A22
:100900004848303A4141217A3A42402078009DA03F
:10091000A07D3D4242423D3D4040403D3C24FF24BD
:1009200024487E4943662B2FFC2F2BFF0929F620F4
:10093000C0887E090320545479410000447D413031
:1009400048484A32384040227A007A0A0A727D0DBD
:1009500019317D2629292F28262929292630484D75
:100960004020380808080808080808382F10C8ACC4
:10097000BA2F102834FA00007B000008142A142231
:1009800022142A14085500550055AA55AA55AAFF45
:1009900055FF55FF000000FF00101010FF00141459
:1009A00014FF001010FF00FF1010F010F0141414CA
:1009B000FC001414F700FF0000FF00FF1414F404FF
:1009C000FC141417101F10101F101F1414141F00F4
:1009D000101010F0000000001F101010101F101059
:1009E0001010F010000000FF101010101010101068
:1009F00010FF10000000FF140000FF00FF00001FA8
:100A000010170000FC04F414141710171414F40445
:100A1000F40000FF00F714141414141414F700F772
:100A2000141414171410101F101F141414F414109D
:100A300010F010F000001F101F0000001F14000035
:100A400000FC140000F010F01010FF10FF1414143C
:100A5000FF141010101F00000000F010FFFFFFFF38
:100A6000FFF0F0F0F0F0FFFFFF0000000000FFFFDC
:100A70000F0F0F0F0F3844443844FC4A4A4A347E63
:100A800002020606027E027E026355494163384433
:100A9000443C04407E201E2006027E020299A5E707
:100AA000A5991C2A492A1C4C7201724C304A4D4DA2
:100AB000303048784830BC625A463D3E494949008A
:100AC0007E0101017E2A2A2A2A2A44445F444440A6
:100AD000514A444040444A51400000FF0103E08035
:100AE000FF000008086B6B083612362436060F0923
:100AF0000F06000018180000001010003040FF0121
:100B000001001F01011E00191D1712003C3C3C3C56
:100B1000000000000000311AB01511241FBECFEFF5
:100B2000CDBFDFE3DEBF18E2A0E0B8E2E5E9F8E31D
:100B300002C005900D92AA30B107D9F729E2AAE0C8
:100B4000B8E201C01D92A834B207E1F715E0CCE885
:100B5000D5E004C02197FE010E94C01ACB38D1070E
:100B6000C9F70E94BF150C94021C0C940000FC01F4
:100B700077FDB9C080859185681779070CF0B3C0FF
:100B800057FDB1C082859385481759070CF0089529
:100B90008589823079F484819581DC01A61BB70BAD
:100BA000BD016150710986819781DC01A41BB50BE1
:100BB000AD010EC0833009F084C064277527CA01D7
:100BC000862797276827792746815781481B590B25
:100BD000415051092130310531F048F122303105C1
:100BE00009F44AC00895CA0157FD07969C01A3E085
:100BF00035952795AA95E1F7A481B5812A9FC00173
:100C00002B9F900D3A9F900D1124680F791F028C35
:100C1000F38DE02DE60FF71F4770552781E090E038
:100C200001C0880F4A95EAF79081892B48C0CA0114
:100C300057FD07969C0193E0359527959A95E1F726
:100C4000A481B5812A9FC0012B9F900D3A9F900DE2
:100C50001124680F791F028CF38DE02DE60FF71F2A
:100C60004770552781E090E001C0880F4A95EAF768
:100C700080959081892323C0CA0157FD07969C0166
:100C800083E0359527958A95E1F7A481B5812A9F60
:100C9000C0012B9F900D3A9F900D1124680F791F72
:100CA000028CF38DE02DE60FF71F4770552781E08A
:100CB00090E001C0880F4A95EAF7908189278083E8
:100CC0000895813009F086CF642775274627572776
:100CD0006427752784819581DC01A61BB70BBD01B4
:100CE0006150710977CF08950895FC016370658B99
:100CF0008481958126813781613039F0633029F014
:100D0000808791872287338708952087318782875C
:100D1000938708956F927F928F929F92AF92BF9226
:100D2000CF92DF92EF92FF920F931F93CF93DF93B7
:100D3000EC014B015A0169013801E881F981068013
:100D4000F781E02D0995E881F9810684F785E02D8A
:100D500087019601A501B401CE010995A501460DB3
:100D6000571D41505109E881F9810684F785E02D2E
:100D70009601B401CE010995E881F9810484F585D5
:100D8000E02D9301A501B401CE010995C80CD91C31
:100D9000B60161507109E881F9810484F585E02D7F
:100DA0009301A501CE010995E881F9810288F389B3
:100DB000E02DCE01DF91CF911F910F91FF90EF9029
:100DC000DF90CF90BF90AF909F908F907F906F906B
:100DD00009948F929F92AF92BF92CF92DF92EF923F
:100DE000FF920F931F93CF93DF934C016B015A0136
:100DF000E901DC01ED91FC916217730781F404179E
:100E0000150724F48B2D5801042F182F0A191B09DC
:100E100098012F5F3F4F008CF18DE02D12C04017DD
:100E2000510709F52617370724F48D2D6901C62FC0
:100E3000D82F9E012C193D092F5F3F4F028CF38D57
:100E4000E02D8701A501B601C4010995DF91CF917D
:100E50001F910F91FF90EF90DF90CF90BF90AF90D8
:100E60009F908F9008950680F781E02D0995D40119
:100E7000ED91FC910088F189E02D9E01A501B6015C
:100E8000C4010995D401ED91FC910288F389E02D0C
:100E9000C401DF91CF911F910F91FF90EF90DF90F0
:100EA000CF90BF90AF909F908F900994EF92FF9258
:100EB0000F931F93DC011A960D911C911B971896A6
:100EC0002D913C911997ED91FC91048CF58DE02DBD
:100ED0007B0140E050E060E070E009951F910F91C8
:100EE000FF90EF9008954F925F926F927F928F9252
:100EF0009F92AF92BF92CF92DF92EF92FF920F93A9
:100F00001F93CF93DF936C012B015A0139014801E4
:100F1000DC01ED91FC910680F781E02D0995E2015D
:100F2000640C751CD601ED91FC91C615D7055CF4D7
:100F30000484F585E02D87019401A501BE01C60159
:100F400009952196EFCF0288F389E02DC601DF9144
:100F5000CF911F910F91FF90EF90DF90CF90BF90B6
:100F6000AF909F908F907F906F905F904F9009947B
:100F70008F929F92AF92BF92CF92DF92EF92FF92A9
:100F80000F931F93CF93DF93EC015B014A0169013B
:100F9000E881F9810680F781E02D099595012C0DF6
:100FA0003D1D21503109E881F9810088F189E02D4A
:100FB00078018401A401B501CE010995E881F98188
:100FC0000288F389E02DCE01DF91CF911F910F911F
:100FD000FF90EF90DF90CF90BF90AF909F908F9059
:100FE00009948F929F92AF92BF92CF92DF92EF922D
:100FF000FF920F931F93CF93DF93EC015B014A01A4
:1010000069017801E881F9810680F781E02D099571
:10101000C80CD91C860101501109E881F9810088AA
:10102000F189E02D9501A401B501CE010995E88172
:10103000F9810288F389E02DCE01DF91CF911F91D4
:101040000F91FF90EF90DF90CF90BF90AF909F9067
:101050008F9009940895EF92FF920F931F93DC01F4
:10106000ED91FC91048CF58DE02D09951F910F9168
:10107000FF90EF9008950F931F93DC01ED91FC9189
:10108000028CF38DE02D09951F910F9108950F9318
:101090001F93DC01ED91FC91008CF18DE02D099501
:1010A0001F910F910895DC01ED91FC910480F58171
:1010B000E02D09942F923F924F925F926F927F9210
:1010C0008F929F92AF92BF92CF92DF92EF92FF9258
:1010D0000F931F93CF93DF93CDB7DEB72697CDBF86
:1010E000DEBF2C016D837E836A015901C801EB824A
:1010F000FC824801841A950A97FE03C0919481945A
:10110000910835012D813E81621A730A77FE03C072
:10111000719461947108681479045CF43A2D2B2D54
:101120005C01832F922F3D812E81CD82DE82C32EE2
:10113000D22EAD81BE81AA16BB065CF43C2D2D2DAE
:101140006C01832F922F3D812E81AD82BE82A32E12
:10115000B22E85012D813E81021B130B1C012C1820
:101160003D0837FE03C0319421943108780117FF00
:1011700003C03FEFE31AF30AF594E794C816D906C3
:101180002CF08FEF9FEF89839A8304C0A1E0B0E039
:10119000A983BA832D813E81A216B30624F1D20120
:1011A000ED91FC910084F185E02D2B813C81681448
:1011B000790424F44D815E81B60103C0A6016D81DE
:1011C0007E81C2010995E218F308F7FE06C0298165
:1011D0003A81C20ED31EE00EF11E8D819E810196D2
:1011E0008D839E83D7CF2696CDBFDEBFDF91CF9173
:1011F0001F910F91FF90EF90DF90CF90BF90AF9035
:101200009F908F907F906F905F904F903F902F9026
:1012100008950F9391E09093E9281092E828FB013C
:1012200060E070E0641740F49191DB01A853B74D82
:101230009C936F5F7F4FF6CF4093C7282093C628BB
:101240001092C5281092C4280093C328880F809359
:10125000C22823E030E044E050E08091C7288111AB
:1012600014C08091C628882341F04093C028509331
:10127000C1288091C22881600FC08091C728811148
:101280000DC08091C628811109C02093C0283093D9
:10129000C1288091C2288E7F8093A7088091E8287A
:1012A0008823E1F38091E8288330B9F28091C62841
:1012B000882319F08091C42806C09091E82881E025
:1012C000913009F480E00F910895E0EAF8E091850B
:1012D0009066918722E030E02093C0283093C128A7
:1012E0008093592810925828089591E09093582897
:1012F000109259288091A9088F798093A90883E0DA
:101300008093AA088091AB0881FF0AC01092BE2882
:10131000E0915628F0915728099585E090E006C0A5
:101320001092BF289093BC2886E090E08093C0285C
:101330009093C12808956093542870935528089578
:1013400060935228709353280895E0915428F091A7
:101350005528309729F0109251281092502809945E
:101360000895CF93DF93EC01E0915228F091532838
:101370003097F1F090914F2880914E289817C0F047
:1013800090E0292F30E02617370754F4DE01A20F32
:10139000B31F4C91D901A25DB74D4C939F5FF1CF24
:1013A00010924F2860934E28CB01DF91CF91099482
:1013B000DF91CF910895E0914F2880914E28E81752
:1013C00030F4F0E0E25DF74D808190E008958FEF1A
:1013D0009FEF089590914F2880914E28981750F4D0
:1013E000E92FF0E0E25DF74D208130E09F5F9093C0
:1013F0004F2802C02FEF3FEFC901089580914E287A
:1014000090E020914F28821B91090895CF92DF929E
:10141000EF92FF920F931F93CF93DF937C018A018A
:10142000EB016B01C40ED51ECC15DD0551F06991A1
:10143000D701ED91FC910190F081E02DC701099554
:10144000F3CFC801DF91CF911F910F91FF90EF90E3
:10145000DF90CF900895FC0180912D288823C1F062
:1014600080915028803238F081E090E0828393832D
:1014700080E090E0089580915128E82FF0E0E35F4C
:10148000F74D60838F5F80935128809350280FC061
:101490009091BD28903240F7E091BD28F0E0E658E9
:1014A000F74D60838091BD288F5F8093BD2881E0D8
:1014B00090E00895DC01ED91FC910688F789E02D1C
:1014C00061E009940F938091C0289091C128019701
:1014D00089F440915028413278F48091E9288111B3
:1014E0000BC0062F20E06DE078E280910C280E946E
:1014F000090903C080E001C081E0109251281092D8
:10150000502810922D280F91089581E080932D2866
:1015100060930C2810925128109250280895DC01F5
:10152000ED91FC91028CF38DE02D21E009940F9355
:10153000CF93DF9300D000D0CDB7DEB719821A82E7
:101540001B821C828091C0289091C128019701F5CF
:101550008091E92881110DC0413208F040E2022F4C
:10156000862F242F40E0BE016F5F7F4F0E94090944
:1015700001C081E0EEE2F8E220E030E0281748F414
:10158000D901A65AB74D9C9191932F5F3F4FF6CF4B
:1015900080E010924F2880934E282496CDBFDEBF66
:1015A000DF91CF910F9108958F929F92AF92BF924A
:1015B000CF92DF92EF92FF92CF93DF9340348DE092
:1015C000580783E068077105D0F0411585E3580797
:1015D0008CE06807710560F040385F446241710536
:1015E00070F4C8E7D0E020E432E44FE050E00DC0F2
:1015F000CCE2D1E020E83AE146E050E006C0C8EE97
:10160000D3E020EA36E841E050E080900028909056
:101610000128A0900228B0900328C501B4010E94BF
:10162000931A69017A018AE0C81AD108E108F10821
:10163000DE01A50194010E94B51A20E03AEC4AE9C6
:101640005BE30E94931AC21AD30AE40AF50AF694DD
:10165000E794D794C794C092A608DF91CF91FF90EA
:10166000EF90DF90CF90BF90AF909F908F900895B4
:10167000E0EAF8E01382168281E085831486118601
:101680001092C0281092C128089510924F281092ED
:101690004E2810925128109250288091C028909185
:1016A000C128892BD9F482E090E08093C0289093E0
:1016B000C1281092BF281092BE281092582810926C
:1016C000592810920B281092BC28660F6093AC0822
:1016D00081EE8093A90881E08093A30885EA99E0D0
:1016E000809356289093572881EB99E08093BA28ED
:1016F0009093BB2808958F929F92AF92BF92CF9202
:10170000DF92EF92FF9210924F2810924E28109283
:101710005128109250288091C0289091C128892B7F
:1017200009F045C08091E3058093E30581E090E0F6
:101730008093C0289093C1281092C4281092C52885
:101740001092E9281092E82881EC8093A3088090F9
:10175000002890900128A0900228B0900328C5018D
:10176000B40120EA36E841E050E00E94931A690192
:101770007A018AE0C81AD108E108F108A8EEB3E0BE
:10178000A50194010E94B51A20E03AEC4AE95BE316
:101790000E94931AC21AD30AE40AF50AF694E7944F
:1017A000D794C794C092A60881E08093A508FF90C3
:1017B000EF90DF90CF90BF90AF909F908F90089563
:1017C0000F931F93CF93DF93DC015596EC915597C0
:1017D000E23071F0E330E9F0E13079F5FB01149685
:1017E0000D90BC91A02DA41BB50BA21BB30B18C070
:1017F000EC01EC81FD81E61BF70BBF016150710923
:10180000EE81FF81DF01A41BB50BAD01421B530B21
:1018100014C0DA01EC01EE81FF81E61BF70B319772
:10182000F7FD0DC0EC014E815F81E417F5073CF434
:10183000AF01BD010E94671402C00E94CE14DF9167
:10184000CF911F910F9108950F931F93DC0155962F
:10185000EC915597E23061F0E33009F1E13081F528
:101860001496ED91FC911597E41BF50B319723C06D
:10187000DC011496ED91FC911597DF01A61BB70BC7
:10188000BD01DC011696ED91FC911797DF01A41BB9
:10189000B50BAD0141505109621B730B11C0FA0128
:1018A000DC0116964D915C911797DA01A61BB70BD8
:1018B000BD01621B730BAB01BF010E94CE140CC0B3
:1018C00057FD0AC0DC011696ED91FC9117974E1753
:1018D0005F0714F40E9467141F910F910895AF924F
:1018E000BF92CF92EF92FF920F931F93CF93DF930C
:1018F000EC01262F888D998D009709F040C06A3041
:1019000059F41C861D862C898E859F8538E0239F7F
:10191000800D911D112441C06D3009F4AAC08E893B
:101920008823C1F03C898C859D8546E0349F800DDD
:10193000911D112448855985481759075CF41C8668
:101940001D868E859F8548E0349F800D911D112452
:101950008E879F87EA88FB88088919894E855F856D
:101960006C857D85CC88CE010E9456122C898C8591
:101970009D8536E0239F800D911D112442C06A3061
:1019800079F41C861D862C89FC013696E4918E859F
:101990009F852E9F800D911D11248E879F8769C082
:1019A0006D3009F466C0FC0134963491631708F475
:1019B00060C03196E491E61708F45BC0FC013296F2
:1019C00065917491422F50E0431B510937E0349FD9
:1019D0005001359FB00C1124A60EB71EF5013296AA
:1019E00034913196E491332311F0E1110DC0F501EA
:1019F0003496E4912C898C859D85E29F800D911D04
:101A000011248C879D8735C0F501359644915E89F8
:101A1000552311F16C89E32FF0E0E40FF11D47FD30
:101A2000FA956E9FD0016F9FB00D11244C855D8596
:101A30004A0F5B1FE885F985E417F5076CF41C86EF
:101A40001D86FC013696E4918E859F856E9F800DE4
:101A5000911D11248E879F87EA88FB880889198940
:101A60004E855F856C857D85CC88CE010E9456129F
:101A7000BECF81E090E0DF91CF911F910F91FF9059
:101A8000EF90CF90BF90AF900895CF93DF938FB733
:101A9000F8942091F0283091F1284091F22850914B
:101AA000F328E091BA0A9091B60A90FF06C02F5F22
:101AB0003F4F4F4F5F4FE091BA0A8FBFA091FA2876
:101AC000B091FB28C091F828D091F9280E94B51A4E
:101AD000EC9F9001ED9F300D1124620F731F811D4B
:101AE000911DDF91CF9108951F920F920FB60F9223
:101AF00011242F933F934F935F936F937F938F9313
:101B00009F93AF93BF934091EC285091ED28609143
:101B1000EE287091EF282091EA283091EB288091EF
:101B2000F6289091F728480F591F611D711D80916B
:101B3000F4289091F528820F931F883E23E09207A6
:101B400030F0885E93404F5F5F4F6F4F7F4F8093C1
:101B5000EA289093EB284093EC285093ED2860936B
:101B6000EE287093EF288091F0289091F128A091B1
:101B7000F228B091F3280196A11DB11D8093F028A1
:101B80009093F128A093F228B093F32881E08093FA
:101B9000B60ABF91AF919F918F917F916F915F91A5
:101BA0004F913F912F910F900FBE0F901F9018955E
:101BB0001F93CF93DF93FC01868D978D009741F1A2
:101BC000162FEF0160A1062E000C770B0E94E1108A
:101BD0008E8D9F8DDC01ED91FC910190F081E02DC7
:101BE00060E009958E8D9F8DDC01ED91FC91019057
:101BF000F081E02D612F09958E8D9F8DDC01ED9197
:101C0000FC91008CF18DE02DDF91CF911F91099413
:101C1000A4A5B5A59C9182A9809589238C93848DD8
:101C2000958D892B51F000006093C4088091C30802
:101C300087FFFCCF8091C40821C028E030E090E805
:101C4000A0A5B1A580A9462F492319F04C91842B5A
:101C500003C04C91809584238C93A2A5B3A54C918D
:101C600081A9842B8C93A2A5B3A54C9181A98095C1
:101C700084238C9396952150310911F7DF91CF91F0
:101C80001F9108951F93CF93DF93EC01162F8E8D34
:101C90009F8D009761F0DC01ED91FC910288F38942
:101CA000E02D40E85AE166E070E0099507C0EEA536
:101CB000FFA590818BA9809589238083111102C093
:101CC00066EA01C067EACE010E94D80D8E8D9F8D15
:101CD000009771F04EA95FA968AD79ADDC01ED9177
:101CE000FC910288F389E02DDF91CF911F91099437
:101CF000EEA5FFA590818BA9892B8083DF91CF91E1
:101D00001F9108951F920F920FB60F9211242F93D7
:101D10003F934F935F936F937F938F939F93AF9373
:101D2000BF93CF93EF93FF93C091AB08C2FF08C05E
:101D30001092BF281092BE281092BD2884E075C072
:101D4000C6FF20C08091BC28813061F46091BF281B
:101D500070E0E091BA28F091BB288AE998E20995F1
:101D60001092BC28C0FF03C00E94750960C080E4C7
:101D70008093AB0881E00E9465098091AB0885FFE4
:101D800056C0F2CFC7FF50C0C3FF08C01092BF2893
:101D90001092BE281092BD2883E047C08091A90808
:101DA00080668093A9088091AB0881FF23C0809151
:101DB000BE28882349F08091AB0884FF05C082E0EB
:101DC0008093AA0881E031C08091BE28803270F4EF
:101DD000E091BE28F0E0E658F74D80818093AD0891
:101DE0008091BE288F5F8093BE2815C082E08093CB
:101DF000AA081BC08091BF28803288F48091AD086A
:101E0000E091BF28F0E0E656F74D80838091BF282F
:101E10008F5F8093BF2883E08093AA0808C086E084
:101E20008093AA0882E001C085E00E946509FF91C5
:101E3000EF91CF91BF91AF919F918F917F916F91D2
:101E40005F914F913F912F910F900FBE0F901F9078
:101E500018951F920F920FB60F9211242F938F9304
:101E60009F93EF93FF938091A508982F9C70A1F00A
:101E70008091A50882FF02C094E001C093E0909396
:101E8000E8288093A50881E090E08093C028909393
:101E9000C1281092E92889C086FF3DC02091C7283B
:101EA0009091C6288091A50884FF0BC08091C3281B
:101EB000882311F083E001C081E08093A40885E0CD
:101EC0006AC08091C528821770F4E091C528F0E0BF
:101ED000E853F74D80818093A8088091C5288F5FD3
:101EE0008093C52862C08091C428891760F484E07B
:101EF00090E08093C0289093C1288091C22881608F
:101F00008093A70852C08091C328882311F083E0F2
:101F10003DC081E03BC087FF3DC08091C428803236
:101F2000B8F48091A808E091C428F0E0E65AF74D93
:101F300080838091C4288F5F8093C4289091C628A5
:101F40008091C4288917D8F482E08093A4082DC01A
:101F50008091C328882311F087E001C085E0809339
:101F6000A40882E08093E8281092E92881E090E0BC
:101F70008093C0289093C1281092C62816C08091E3
:101F8000C328882311F087E001C085E08093A4086E
:101F900081E001C086E08093E8281092E92881E082
:101FA00090E08093C0289093C128FF91EF919F917A
:101FB0008F912F910F900FBE0F901F90189589321F
:101FC00008F064C090E0FC01E25FFE4F24912F3FD7
:101FD00009F45CC0FC01E056FF4FA491AA2319F15B
:101FE000A13081F000F1A630F0F430E1A39FD001E0
:101FF0001124A05AB54F11963C9111973F7E11962E
:102000003C9311C0FC01E753FF4FE4913091010A6A
:10201000EC5F41E050E001C0440FEA95EAF74095DB
:1020200043234093010AFC01E95CFE4FA49130E296
:10203000A39FD0011124BC5F3C91322379F061153C
:10204000710519F416962C9308956230710519F4F0
:1020500017962C93089515962C930895FC01E75339
:10206000FF4F8491109731F08F3F21F05096A80FC9
:10207000B11D02C0A0E0B0E09FB7F8948C91672B2F
:1020800011F4877F01C088608C939FBF0895CF9320
:10209000DF93893298F590E0FC01E25FFE4F2491D6
:1020A0002F3F61F16330710548F5FC01E95CFE4F9B
:1020B000A49130E2A39FD0011124BC5F613071056F
:1020C00019F411962C931AC0FC01E753FF4F849129
:1020D0008F3F29F0ED016096C80FD11D02C0C0E00E
:1020E000D0E09FB7F89412962C93888162307105E6
:1020F00011F4886001C0877F88839FBFDF91CF91F3
:1021000008950E94F61B8F929F92AF92BF92CF923A
:10211000DF92EF92FF924B015C010E94450D6B0133
:102120007C01A8EEB3E0A50194010E94B51AC60E89
:10213000D71EE81EF91EC616D706E806F90638F4BB
:102140000E94450DC616D706E806F906C8F30E9498
:10215000450D6C157D058E059F05C8F3FF90EF902A
:10216000DF90CF90BF90AF909F908F900895CF92C7
:10217000DF92EF92FF920F931F93CF93DF936C0147
:102180007A018B01C0E0D0E0CE15DF0581F0D801E7
:102190006D918D01D601ED91FC910190F081E02DC2
:1021A000C6010995892B11F02196EECF7E01C7015A
:1021B000DF91CF911F910F91FF90EF90DF90CF9023
:1021C0000895DC01ED91FC910488F589E02D0994D6
:1021D000FF920F931F93CF93DF93F82ED92FC62F23
:1021E00080911C2990911D29009709F45BC0609192
:1021F0001E29062E000C770B0E94E11080911C29ED
:1022000090911D29DC01ED91FC910190F081E02D70
:1022100060E009950F2D1D2FD1E080911C29909130
:102220001D29CC2399F1D032F8F0DC01ED91FC911D
:10223000008CF18DE02D099560911E29062E000C71
:10224000770B80911C2990911D290E94E1108091AB
:102250001C2990911D29DC01ED91FC910190F081E8
:10226000E02D60E00995D1E080911C2990911D2915
:10227000F8016491DC01ED91FC910190F081E02D79
:102280000995DF5FC1500F5F1F4FC7CFDC01ED9194
:10229000FC91008CF18DE02DDF91CF911F910F917A
:1022A000FF900994E0912A29F0912B299081809147
:1022B0003029809589238083EF2DFD2FC15008F4AC
:1022C0003DC0549180911A2990911B29892B59F076
:1022D00000005093C4088091C30887FFFCCF809111
:1022E000C4083196EBCF28E030E090E8A091262991
:1022F000B091272980912E29452F492319F04C911F
:10230000842B03C04C91809584238C93A091282921
:10231000B09129294C9180912F29842B8C93A091E5
:102320002829B09129294C9180912F2980958423C7
:102330008C93969521503109C9F6D3CFDF91CF9177
:102340001F910F91FF900895009769F0FC01019093
:102350000020E9F73197AF01481B590BBC018EEF04
:1023600098E20C94B71080E090E008952091042941
:1023700030910529C901079697FD079623E09595A9
:1023800087952A95E1F72091022930910329829FB0
:10239000A001839F500D929F500D112460E070E0CA
:1023A00080911829909119290C94FB1B3F924F9210
:1023B0005F926F927F928F929F92AF92BF92CF92D5
:1023C000DF92EF92FF920F931F93CF93DF93CDB7DE
:1023D000DEB72697CDBFDEBF2C013B014A01590174
:1023E000C901079697FD07969C0193E035952795BF
:1023F0009A95E1F72B833C83C12CD12CE12CF12C55
:10240000312CC3018E0D9F1D89839A83E016F1063E
:10241000C4F51D821E822D813E812A153B054CF597
:10242000C90187709927892B11F0330C0EC0ED81FB
:10243000FE81F7FD379683E0F595E7958A95E1F7FC
:10244000EC0DFD1DE80DF91D349037FE0CC021E0A8
:1024500030E049815A816D817E81640D751D8EEF5A
:1024600098E20E9453088D819E8101968D839E8300
:10247000D2CF9FEFE91AF90A2B813C81C20ED31EFD
:10248000C0CF2696CDBFDEBFDF91CF911F910F91B8
:10249000FF90EF90DF90CF90BF90AF909F908F9084
:1024A0007F906F905F904F903F9008952F923F9252
:1024B0004F925F926F927F928F929F92AF92BF9254
:1024C000CF92DF92EF92FF920F931F93CF93DF9300
:1024D000CDB7DEB76B97CDBFDEBF8A8F9B8F5B0119
:1024E0001A01D22E0E831F833701C982DC01589650
:1024F0002D913C9159972115310509F0E6C01896A8
:102500008D919C911997681779070CF0CAC11A969A
:102510008D919C911B97481759070CF0C2C18C2CC8
:10252000912CFB0126E0C29EE00DF11D1124EA87EB
:10253000FB871E161F060CF0B4C1A40183E0440FF4
:10254000551F8A95E1F74C875D87CA01820D931D5F
:10255000181619060CF0A5C157968C91811104C06C
:102560005FEA5D1508F4D394AA8DBB8DED91FC91C3
:1025700011970680F781E02DCD010995B5E0DB9E2E
:10258000C0011124F5013596EE87FF87AA82BB8230
:1025900025019C012A193B09288B398BA101485F31
:1025A0005F4F4A8B5B8BE889F989E40DF51DEB5E83
:1025B000F94F5491588761012C823D82888580FFB4
:1025C00013C0AA8DBB8DED91FC91B981B13031F46E
:1025D0000084F185E02D2E813F8116C00284F385B1
:1025E000E02DEE80FF801AC0EE81FF81E615F70531
:1025F000F1F0AA8DBB8DED91FC91B981B13051F410
:102600000084F185E02D9301A601B2018A8D9B8D96
:1026100009950DC00284F385E02D730184019401B6
:102620004C815D816A817B818A8D9B8D0995E885CE
:10263000E695E887FFEFCF1ADF0A2C813D81280D50
:10264000391D2C833D834A895B89C416D50609F060
:10265000B5CF5FEF451A550A8A819B81880D991D78
:102660008A839B83AE85BF854A165B0609F09BCFA4
:10267000EE81FF81E615F70509F4F4C0EA8DFB8DC4
:10268000A081B181F981F13079F4B5016B5F7F4FA1
:102690001C96ED91FC911D97830128E030E0A1018B
:1026A0008A8D9B8D0995DEC06A857B8568197909BD
:1026B0001A96ED91FC911B9773010C851D85940171
:1026C000A1018A8D9B8D0995CDC0F9013496E491C5
:1026D000DE1AF901329685919491B7E0DB9E800D68
:1026E000911D1124F901259134912A8B3B8BFC011A
:1026F000259134912901FC013296C4903196349190
:102700003E87329614913196D4904981423058F0E8
:10271000612E012E000C77088D2D0D2C000C990BCD
:102720008887998704C018861986612C712CAA8D18
:10273000BB8DED91FC9111970680F781E02DCD01C5
:102740000995B9818B2E912C689CC001699C900DD4
:10275000789C900D1124FC01EA0DFB1DEC87FD8790
:102760001A82712C612CE12F110FFF0B95012E0F96
:102770003F1F2A873B87AC0CB11CA5014E0F5F1F82
:102780004E8B5F8BC1018D0D911DD7FC9A95888F63
:10279000998F9E85691608F065C0862D90E0488562
:1027A0005985480F591F489D9001499D300D589DEE
:1027B000300D1124D101A20FB31FA88BB98BEC856A
:1027C000FD85EC83FD83AA84BB84DA80FA85DF1A59
:1027D000288D398D280F391F2C8B3D8B8D2D8A0D1F
:1027E0004E895F89A416B506C1F1877041F4C20114
:1027F0000196EA89FB89E40DF51D74902C0177FEA2
:1028000021C0AA8DBB8DED91FC91B981B13061F4ED
:102810000084F185E02D2E813F814C895D89B501D1
:102820008A8D9B8D09950EC00284F385E02DEE8084
:10283000FF8084019401488959896C817D818A8D4A
:102840009B8D0995770CEFEFAE1ABE0A2C813D8166
:10285000280D391D2C833D83C1CF3A813C0D3A832D
:10286000639497CFAA8DBB8DED91FC91119702884F
:10287000F389E02DCD016B96CDBFDEBFDF91CF9107
:102880001F910F91FF90EF90DF90CF90BF90AF908E
:102890009F908F907F906F905F904F903F902F9080
:1028A00009946B96CDBFDEBFDF91CF911F910F9141
:1028B000FF90EF90DF90CF90BF90AF909F908F9060
:1028C0007F906F905F904F903F902F9008950F935F
:1028D0001F93CF93DF9377FF04C0260F371F60E06D
:1028E00070E0DC011496CD91DC911597FB01E20FAD
:1028F000F31FCE17DF071CF49E01261B370B1216A1
:1029000013060CF046C0FA0157FD3796DF01E3E0ED
:10291000B595A795EA95E1F7AC9FF001AD9FF00D55
:10292000BC9FF00D11246E0F7F1FDC015A96ED91B4
:10293000FC915B97E60FF71F4770552781E090E009
:1029400001C0880F4A95EAF7482F0130110539F088
:1029500078F002301105E9F42E0F3F1F13C02E0F3F
:102960003F1FE217F307A9F08081842B8193F9CFF1
:1029700080952E0F3F1FE217F30759F0908198239F
:102980009193F9CFE217F30721F080818427819397
:10299000F9CFDF91CF911F910F910895EF92FF92A0
:1029A0000F931F93CF93DF93EC0177FDA5C0EC80CD
:1029B000FD806E157F050CF09FC057FF04C0240FEB
:1029C000351F40E050E08E819F81FA01E20FF31F36
:1029D0008E179F071CF49C01241B350B121613063F
:1029E0000CF08AC0922F842F8695869586958E9DB1
:1029F000D0018F9DB00D11246A0F7B1FAA8DBB8D56
:102A0000A60FB71F4770B1F188E0841B482F682FCD
:102A100070E0FB01E35FF94FE491281798F4621B23
:102A200071092FEF30E002C0359527956A95E2F7DE
:102A3000E2230130110549F078F00230110509F068
:102A40005BC00EC00130110519F48C91E82B0AC04F
:102A50000130110508F049C0E0958C91E82302C0CF
:102A60008C91E827EC93941708F446C02C813D81A3
:102A7000A20FB31FE92FE41BE830F8F00230110574
:102A800061F48E2F9C9190959C932C813D81A20F97
:102A9000B31F88508830B0F70FC081E001151105D1
:102AA00009F480E081959E2F8C932C813D81A20FAB
:102AB000B31F98509830C0F7E770EE23E9F0F0E0CC
:102AC000EB5FF94FE4910130110539F048F0023025
:102AD000110591F48C91E82706C08C91E82B03C076
:102AE000E0958C91E823EC9307C00230110509F4BE
:102AF000B7CFAE0DBF1DBECFDF91CF911F910F910C
:102B0000FF90EF900895FC0140910028509101281A
:102B1000609102287091032876956795579547959F
:102B200090E0413089E058078DE36807710540F077
:102B300076956795579547959F5F963091F797E003
:102B400081E0982784E08183292F217030E084E0A0
:102B5000220F331F8A95E1F7292B216220830895E4
:102B600088E498E78093FE289093FF2880911829A5
:102B700090911929009711F00C946D1B089590E025
:102B800088ED84BF9093610080E094E2A4EFB0E010
:102B90008093002890930128A0930228B0930328E3
:102BA0008091020686608093020680910006816013
:102BB00080930006809102068F7C809302068091AC
:102BC000A0008F788093A00080910206806180939E
:102BD00002061092E20581E08093E40583E0809391
:102BE000010A8FEF90E08093260A9093270A80E8ED
:102BF00090E08093380A9093390A80933A0A909330
:102C00003B0A80933C0A90933D0A8BE08093000A34
:102C10008091E50583608093E505E0E8FAE037E020
:102C20002FEF90E885E03183248795878083709625
:102C3000E03B4AE0F407B9F780E094E08093FA289B
:102C40009093FB288091FA289091FB282FEF30E099
:102C5000B9010E947F1A6093F8287093F928809137
:102C6000FA289091FB28E8EEF3E0BF010E947F1A5A
:102C70006093F6287093F7288091FA289091FB28AA
:102C8000BF010E947F1A8093F4289093F528209327
:102C9000BC0A3093BD0A8091B50A81608093B50A61
:102CA00084E08093B00A8091B00A81608093B00A7A
:102CB000789461E070E08CE10E94471061E070E080
:102CC0008CE10E94DF0F61E070E08DE10E9447100F
:102CD00061E070E08DE10E94DF0F61E070E083E26F
:102CE0000E94471061E070E083E20E94DF0F61E024
:102CF00070E08EE10E94471061E070E08EE10E947A
:102D0000DF0F8091182990911929892B11F52091B5
:102D1000042930910529C901079697FD0796B3E06C
:102D200095958795BA95E1F720910229309103296D
:102D3000DC01A29FC001A39F900DB29F900D1124B2
:102D40000E94D51A8093182990931929892B09F488
:102D5000D0C00E94B611809104299091052981323A
:102D600091050CF423C2BC016054710977FF02C0C5
:102D70006F5F7F4F75956795809102299091032928
:102D80008255910997FD019600E410E022E530E0BC
:102D900040E453E0959587950E94D61182E0809398
:102DA0001F29C0911C29D0911D29209709F416C212
:102DB0008CE380931E29E881F9810484F585E02D58
:102DC000CE0109958091252987FD22C061E070E040
:102DD0000E94471061E070E0809125290E94DF0F7A
:102DE00061E070E080E090E00E94831060E070E0BD
:102DF000809125290E94DF0F6AE070E080E090E07A
:102E00000E94831061E070E0809125290E94DF0F0D
:102E100080911C2990911D29009709F4DCC2DC01E6
:102E2000ED91FC910288F389E02D40E85AE166E0DB
:102E300070E0099564E08AE091E00E94E8106091FA
:102E4000042961508EEF98E20E94D80D64E086E07C
:102E500091E00E94E81080911F29813009F4C6C2D8
:102E600064E18EEF98E20E94D80D64E082E091E088
:102E70000E94E810809102299091032980389105E1
:102E800009F0C7C2809104299091052980329105EB
:102E900009F0AEC264E08EEF90E00E94E81069EDA8
:102EA0008EEF98E20E94D80D80911F29813009F49D
:102EB000CCC261EF8EEF98E20E94D80D66E082EFFF
:102EC00090E00E94E81080911C2990911D290097A4
:102ED00009F4BDC2409134295091352960913629B9
:102EE00070913729DC01ED91FC910288F389E02D86
:102EF00009950E94B61162E08EEF98E20E94750675
:102F000081E08093122981E090E0809310299093D2
:102F1000112980930E2990930F29C0E2D0E0C0932D
:102F20000A29D0930B2910920C2910920D298CE6B6
:102F300098E70E94A411C0930A29D0930B2988E036
:102F400090E080930C2990930D2982E798E70E94E6
:102F5000A411C0930A29D0930B2980E190E08093BB
:102F60000C2990930D298DE798E70E94A411C09336
:102F70000A29D0930B2988E190E080930C29909343
:102F80000D2988E898E70E94A41180911C2990914E
:102F90001D29009761F0DC01ED91FC910288F38915
:102FA000E02D40E85AE166E070E009950AC0E09142
:102FB0002C29F0912D2990818091312980958923A8
:102FC000808365E080E096E00E94E810609102292D
:102FD00061508EEF98E20E94D80D20910429309123
:102FE0000529C901079697FD079623E095958795D2
:102FF0002A95E1F72091022930910329829F8001CF
:10300000839F100D929F100D1124C0911829D0910B
:10301000192980911C2990911D290C0F1D1F0097C3
:1030200009F455C060911E29062E000C770B0E94F2
:10303000E11080911C2990911D29DC01ED91FC91FA
:103040000190F081E02D60E40995FF24F3948091D4
:103050001C2990911D29C017D10789F1BFE1BF1527
:1030600000F5DC01ED91FC91008CF18DE02D0995CE
:1030700060911E29062E000C770B80911C299091DF
:103080001D290E94E11080911C2990911D29DC01CD
:10309000ED91FC910190F081E02D60E40995FF2411
:1030A000F39480911C2990911D296991DC01ED9187
:1030B000FC910190F081E02D0995F394C8CFDC01DB
:1030C000ED91FC91008CF18DE02D099549C0E091C6
:1030D0002A29F0912B29908180913029892B808396
:1030E0000C171D0709F43CC0599180911A29909141
:1030F0001B29892B51F000005093C4088091C3080C
:1031000087FFFCCF8091C408EBCF28E030E090E847
:10311000E0912629F091272980912E29492F4523D6
:1031200019F04081842B03C04081809584238083E3
:10313000E0912829F0912929408180912F29842B21
:103140008083E0912829F0912929408180912F29BD
:10315000809584238083969521503109C9F6C0CF8C
:1031600080911C2990911D29009781F0409134296C
:10317000509135296091362970913729DC01ED9104
:10318000FC910288F389E02D099509C0E0912C2972
:10319000F0912D29908180913129892B8083C0E085
:1031A000D0E02097F1F30E940000FBCFBC016052F9
:1031B000710977FF02C06F5F7F4F759567958091AA
:1031C0000229909103298357910997FD019600E206
:1031D00010E023E730E040E651E0DCCD61E070E054
:1031E000809123290E94471061E070E0809124299A
:1031F0000E9447102091232929328CF4E22F022EBD
:10320000000CFF0BE95CFE4F849190E006973CF4C4
:103210008491B0E28B9FC00111249C5F02C080E0CA
:1032200090E0049680932A2990932B2929323CF42C
:10323000E22F220FFF0BE25FFE4FE49101C0EFEFA0
:10324000E09330298091242989328CF4E82F082ECC
:10325000000CFF0BE95CFE4F249130E02630310575
:1032600034F4C49120E2C29FE0011124DC5F9E018E
:103270002C5F3F4F20932C2930932D2989323CF429
:10328000E82F880FFF0BE25FFE4FE49101C0EFEFE4
:10329000E09331298C81E82BEC83C0911A29D091DD
:1032A0001B292097B9F18D8181110CC01E821F82CC
:1032B000188619861A861B861C861D861E861F8602
:1032C00081E08D839091E3058C81892B8093E305C8
:1032D00060E070E08B810E94471061E070E08981BE
:1032E0000E94471061E070E08A810E94471080913F
:1032F000C10884608093C1088091C0088162809376
:10330000C0089091FC288091FD289093C00880937C
:10331000C10858CD61E070E0809121290E944710DA
:1033200061E070E0809122290E94471020912129BC
:1033300029328CF4E22F022E000CFF0BE95CFE4FC9
:10334000849190E006973CF4849130E2839FC00121
:1033500011249C5F02C080E090E0049680932629AF
:103360009093272929323CF4E22F220FFF0BE25FD2
:10337000FE4FE49101C0EFEFE0932E2980912229C6
:1033800089328CF4E82F082E000CFF0BE95CFE4F0D
:10339000249130E02630310534F4C49140E2C49FDA
:1033A000E0011124DC5F9E012C5F3F4F2093282910
:1033B0003093292989323CF4E82F880FFF0BE25F14
:1033C000FE4FE49101C0EFEFE0932F298C81E0954F
:1033D000E823EC83F7CCE0912C29F0912D29908102
:1033E0008091312980958923808324CD60E139CD76
:1033F0008034910509F053CD63E08BEF90E00E949B
:10340000E81080911F29813011F06FEC19C06FE92D
:1034100017C08036910509F042CD80910429909122
:103420000529409709F03BCD63E088EF90E00E94CA
:10343000E81080911F29813011F06FEA01C060E12E
:103440008EEF98E20E94D80D2ACD62E233CDE09152
:103450002C29F0912D29908180913129892B80830D
:1034600048CD8CEF98E20E948315A8E3B9E212964A
:103470001D921C92139748EE53E060E070E01496A2
:103480004D935D936D937C93179782E298E78D93AC
:103490009C931197EEEFF8E21282138220E830E05D
:1034A0002483358380E490E0868397832087318767
:1034B00082879387158A148615861686178681E07B
:1034C000848B2FEF3FEF228B338B208B318B868BBE
:1034D000178A108E118E88E498E780839183128E6C
:1034E000138E148E158EA68FB78F8FEF83A384A3B0
:1034F00085A386A387A382E399E20C948315AA1B74
:10350000BB1B51E107C0AA1FBB1FA617B70710F0CE
:10351000A61BB70B881F991F5A95A9F78095909500
:10352000BC01CD010895A1E21A2EAA1BBB1BFD010F
:103530000DC0AA1FBB1FEE1FFF1FA217B307E40792
:10354000F50720F0A21BB30BE40BF50B661F771FEA
:10355000881F991F1A9469F76095709580959095CA
:103560009B01AC01BD01CF0108950E94C61AA59F21
:10357000900DB49F900DA49F800D911D112408956E
:10358000EE0FFF1F0590F491E02D0994A29FB0016A
:10359000B39FC001A39F700D811D1124911DB29F87
:1035A000700D811D1124911D08950F931F93CF93CA
:1035B000DF938230910510F482E090E0E09146299B
:1035C000F091472920E030E0A0E0B0E0309719F119
:1035D000408151810281138148175907C8F084172F
:1035E000950769F4109731F012960C931297139681
:1035F0001C9327C0009346291093472922C0211508
:10360000310519F04217530718F49A01BD01EF0173
:10361000DF01F801DBCF21153105F9F0281B390B4B
:103620002430310580F48A819B816115710521F078
:10363000FB018283938304C080934629909347299A
:10364000FE01329644C0FE01E20FF31F8193919375
:1036500022503109288339833AC02091442930917E
:103660004529232B41F420910628309107282093E7
:1036700044293093452920910428309105282115AB
:10368000310541F42DB73EB74091082850910928E3
:10369000241B350BE0914429F0914529E217F307EB
:1036A000A0F42E1B3F0B2817390778F0AC014E5FB2
:1036B0005F4F2417350748F04E0F5F1F4093442992
:1036C000509345298193919302C0E0E0F0E0CF014F
:1036D000DF91CF911F910F910895CF93DF930097C2
:1036E00009F481C0FC01329712821382A09146290D
:1036F000B0914729109781F420813181820F931F67
:1037000020914429309145292817390751F5E09334
:103710004429F093452967C0ED0120E030E0CE1741
:10372000DF0740F44A815B819E0141155105F1F0AC
:10373000EA01F5CFC283D38340815181840F951F65
:10374000C817D90759F488819981840F951F02966B
:10375000808391838A819B818283938321153105A4
:1037600029F4E0934629F09347293DC0E901EA8313
:10377000FB8349915991C40FD51FEC17FD0761F4E4
:1037800080819181840F951F0296E9018883998336
:10379000828193818A839B83E0E0F0E012968D9191
:1037A0009C911397009719F0FD01DC01F7CF8D91E3
:1037B0009C9111979D012E5F3F4F820F931F209187
:1037C0004429309145292817390769F4309729F49D
:1037D000109246291092472902C012821382A093A8
:1037E0004429B0934529DF91CF91089581E090E07D
:1037F000F8940C94021CDC0101C06D9341505040C0
:10380000E0F7089515E0CCE8D5E004C0FE010E9481
:0E381000C01A2196CD38D107C9F7F894FFCF22
:10381E00000000002B0A060AFE09EA09DB092A0845
:10382E007B0B450B380BD40A850A620A5A0A970A93
:10383E008F0AA0099B09000000006F0CB710B70596
:10384E002A0853082B0847083B085A082A08750609
:10385E00420EE00B240C73075607E9068A0648450C
:10386E004C4C4F0041546D656761343830390064FB
:10387E0065762E20626F617264006E6963652074D6
:07388E006F20736565210046
:0A3895000024F40000004829800020
:00000001FF
